{
  "_format": "hh-sol-artifact-1",
  "contractName": "MedicalRecords",
  "sourceName": "contracts/MedicalRecords.sol",
  "abi": [
    {
      "inputs": [],
      "stateMutability": "nonpayable",
      "type": "constructor"
    },
    {
      "inputs": [
        {
          "internalType": "address",
          "name": "",
          "type": "address"
        },
        {
          "internalType": "uint256",
          "name": "",
          "type": "uint256"
        }
      ],
      "name": "docterAccess",
      "outputs": [
        {
          "internalType": "address",
          "name": "",
          "type": "address"
        }
      ],
      "stateMutability": "view",
      "type": "function"
    },
    {
      "inputs": [
        {
          "internalType": "uint256",
          "name": "",
          "type": "uint256"
        }
      ],
      "name": "docterList",
      "outputs": [
        {
          "internalType": "address",
          "name": "",
          "type": "address"
        }
      ],
      "stateMutability": "view",
      "type": "function"
    },
    {
      "inputs": [
        {
          "internalType": "address",
          "name": "_patient",
          "type": "address"
        },
        {
          "internalType": "address",
          "name": "_doctor",
          "type": "address"
        }
      ],
      "name": "getDoctorFiles",
      "outputs": [
        {
          "internalType": "bytes",
          "name": "",
          "type": "bytes"
        }
      ],
      "stateMutability": "view",
      "type": "function"
    },
    {
      "inputs": [
        {
          "internalType": "address",
          "name": "_patient",
          "type": "address"
        },
        {
          "internalType": "address",
          "name": "_doctor",
          "type": "address"
        }
      ],
      "name": "getDoctorPermission",
      "outputs": [
        {
          "internalType": "bool",
          "name": "",
          "type": "bool"
        }
      ],
      "stateMutability": "view",
      "type": "function"
    },
    {
      "inputs": [
        {
          "internalType": "address",
          "name": "_doctor",
          "type": "address"
        },
        {
          "internalType": "bool",
          "name": "_giveAccess",
          "type": "bool"
        },
        {
          "internalType": "bytes",
          "name": "_fileForDoctor",
          "type": "bytes"
        }
      ],
      "name": "modifyAccess",
      "outputs": [],
      "stateMutability": "nonpayable",
      "type": "function"
    },
    {
      "inputs": [
        {
          "internalType": "bytes",
          "name": "publicKey",
          "type": "bytes"
        },
        {
          "internalType": "enum MedicalRecords.Role",
          "name": "_role",
          "type": "uint8"
        }
      ],
      "name": "modifyUser",
      "outputs": [],
      "stateMutability": "nonpayable",
      "type": "function"
    },
    {
      "inputs": [
        {
          "internalType": "uint256",
          "name": "",
          "type": "uint256"
        }
      ],
      "name": "patientList",
      "outputs": [
        {
          "internalType": "address",
          "name": "",
          "type": "address"
        }
      ],
      "stateMutability": "view",
      "type": "function"
    },
    {
      "inputs": [
        {
          "internalType": "address",
          "name": "",
          "type": "address"
        }
      ],
      "name": "patients",
      "outputs": [
        {
          "internalType": "bool",
          "name": "exists",
          "type": "bool"
        }
      ],
      "stateMutability": "view",
      "type": "function"
    },
    {
      "inputs": [
        {
          "internalType": "address",
          "name": "",
          "type": "address"
        }
      ],
      "name": "publicKeys",
      "outputs": [
        {
          "internalType": "bytes",
          "name": "",
          "type": "bytes"
        }
      ],
      "stateMutability": "view",
      "type": "function"
    },
    {
      "inputs": [
        {
          "internalType": "address",
          "name": "",
          "type": "address"
        }
      ],
      "name": "userRoles",
      "outputs": [
        {
          "internalType": "enum MedicalRecords.Role",
          "name": "",
          "type": "uint8"
        }
      ],
      "stateMutability": "view",
      "type": "function"
    }
  ],
  "bytecode": "0x608060405234801561001057600080fd5b50610b27806100206000396000f3fe608060405234801561001057600080fd5b506004361061009e5760003560e01c806374d5e1001161006657806374d5e1001461014e578063a3d6f9a91461017e578063a5faca9e14610191578063babb1d41146101d1578063f277c161146101e457600080fd5b80630869cfbc146100a3578063137fca23146100db5780634816061f146100f057806353a5711b1461011057806364995d561461013b575b600080fd5b6100c66100b136600461075f565b60026020526000908152604090205460ff1681565b60405190151581526020015b60405180910390f35b6100ee6100e93660046107ca565b6101f7565b005b6101036100fe366004610832565b610331565b6040516100d29190610865565b61012361011e3660046108b4565b6103ee565b6040516001600160a01b0390911681526020016100d2565b6100ee6101493660046108cd565b610418565b61017161015c36600461075f565b60016020526000908152604090205460ff1681565b6040516100d2919061093e565b61010361018c36600461075f565b61060b565b6100c661019f366004610832565b6001600160a01b0391821660009081526002602090815260408083209390941682526001909201909152205460ff1690565b6101236101df3660046108b4565b6106a5565b6101236101f2366004610966565b6106b5565b6001803360009081526001602052604090205460ff16600281111561021e5761021e610928565b146102625760405162461bcd60e51b815260206004820152600f60248201526e2737ba1030baba3437b934bd32b21760891b60448201526064015b60405180910390fd5b836102ab573360009081526002602081815260408084206001600160a01b038a168552600181018352818520805460ff19169055909201905281206102a6916106ed565b61032a565b3360009081526002602081815260408084206001600160a01b038a16855260018082018452828620805460ff19169091179055909201905290206102f0838583610a31565b506001600160a01b03851660009081526003602090815260408220805460018101825590835291200180546001600160a01b031916331790555b5050505050565b6001600160a01b038083166000908152600260208181526040808420948616845293909101905220805460609190610368906109a6565b80601f0160208091040260200160405190810160405280929190818152602001828054610394906109a6565b80156103e15780601f106103b6576101008083540402835291602001916103e1565b820191906000526020600020905b8154815290600101906020018083116103c457829003601f168201915b5050505050905092915050565b600481815481106103fe57600080fd5b6000918252602090912001546001600160a01b0316905081565b600181600281111561042c5761042c610928565b14806104495750600281600281111561044757610447610928565b145b6104855760405162461bcd60e51b815260206004820152600d60248201526c24b73b30b634b2103937b6329760991b6044820152606401610259565b3360009081526001602052604081205460ff1660028111156104a9576104a9610928565b146104ee5760405162461bcd60e51b8152602060048201526015602482015274526f6c652061737369676e656420416c726561647960581b6044820152606401610259565b600281600281111561050257610502610928565b14801561052857503360009081526020819052604090208054610524906109a6565b1590505b1561057457600480546001810182556000919091527f8a35acfbc15ff81a39ae7d344fd709f28e8600b4aa8c65c6b64bfe7fe36bd19b0180546001600160a01b031916331790556105b7565b600580546001810182556000919091527f036b6384b5eca791c62761152d0c79bb0604c104a5fb6f4eb0703f3154bb3db00180546001600160a01b031916331790555b3360009081526020819052604090206105d1838583610a31565b503360009081526001602081905260409091208054839260ff199091169083600281111561060157610601610928565b0217905550505050565b60006020819052908152604090208054610624906109a6565b80601f0160208091040260200160405190810160405280929190818152602001828054610650906109a6565b801561069d5780601f106106725761010080835404028352916020019161069d565b820191906000526020600020905b81548152906001019060200180831161068057829003601f168201915b505050505081565b600581815481106103fe57600080fd5b600360205281600052604060002081815481106106d157600080fd5b6000918252602090912001546001600160a01b03169150829050565b5080546106f9906109a6565b6000825580601f10610709575050565b601f016020900490600052602060002090810190610727919061072a565b50565b5b8082111561073f576000815560010161072b565b5090565b80356001600160a01b038116811461075a57600080fd5b919050565b60006020828403121561077157600080fd5b61077a82610743565b9392505050565b60008083601f84011261079357600080fd5b50813567ffffffffffffffff8111156107ab57600080fd5b6020830191508360208285010111156107c357600080fd5b9250929050565b600080600080606085870312156107e057600080fd5b6107e985610743565b9350602085013580151581146107fe57600080fd5b9250604085013567ffffffffffffffff81111561081a57600080fd5b61082687828801610781565b95989497509550505050565b6000806040838503121561084557600080fd5b61084e83610743565b915061085c60208401610743565b90509250929050565b60006020808352835180602085015260005b8181101561089357858101830151858201604001528201610877565b506000604082860101526040601f19601f8301168501019250505092915050565b6000602082840312156108c657600080fd5b5035919050565b6000806000604084860312156108e257600080fd5b833567ffffffffffffffff8111156108f957600080fd5b61090586828701610781565b90945092505060208401356003811061091d57600080fd5b809150509250925092565b634e487b7160e01b600052602160045260246000fd5b602081016003831061096057634e487b7160e01b600052602160045260246000fd5b91905290565b6000806040838503121561097957600080fd5b61098283610743565b946020939093013593505050565b634e487b7160e01b600052604160045260246000fd5b600181811c908216806109ba57607f821691505b6020821081036109da57634e487b7160e01b600052602260045260246000fd5b50919050565b601f821115610a2c576000816000526020600020601f850160051c81016020861015610a095750805b601f850160051c820191505b81811015610a2857828155600101610a15565b5050505b505050565b67ffffffffffffffff831115610a4957610a49610990565b610a5d83610a5783546109a6565b836109e0565b6000601f841160018114610a915760008515610a795750838201355b600019600387901b1c1916600186901b17835561032a565b600083815260209020601f19861690835b82811015610ac25786850135825560209485019460019092019101610aa2565b5086821015610adf5760001960f88860031b161c19848701351681555b505060018560011b018355505050505056fea26469706673582212205174e16604e1cb17ae2801b61e9b52f15effc179c2720e54815edb1e0b39440b64736f6c63430008180033",
  "linkReferences": {},
  "deployedLinkReferences": {}
}