{
  "_format": "hh-sol-artifact-1",
  "contractName": "MedicalRecords",
  "sourceName": "contracts/MedicalRecords.sol",
  "abi": [
    {
      "inputs": [],
      "stateMutability": "nonpayable",
      "type": "constructor"
    },
    {
      "inputs": [
        {
          "internalType": "address",
          "name": "",
          "type": "address"
        },
        {
          "internalType": "uint256",
          "name": "",
          "type": "uint256"
        }
      ],
      "name": "docterAccess",
      "outputs": [
        {
          "internalType": "address",
          "name": "",
          "type": "address"
        }
      ],
      "stateMutability": "view",
      "type": "function"
    },
    {
      "inputs": [],
      "name": "docterCount",
      "outputs": [
        {
          "internalType": "uint256",
          "name": "",
          "type": "uint256"
        }
      ],
      "stateMutability": "view",
      "type": "function"
    },
    {
      "inputs": [
        {
          "internalType": "uint256",
          "name": "",
          "type": "uint256"
        }
      ],
      "name": "docterList",
      "outputs": [
        {
          "internalType": "address",
          "name": "",
          "type": "address"
        }
      ],
      "stateMutability": "view",
      "type": "function"
    },
    {
      "inputs": [
        {
          "internalType": "address",
          "name": "_patient",
          "type": "address"
        },
        {
          "internalType": "address",
          "name": "_doctor",
          "type": "address"
        }
      ],
      "name": "getDoctorFiles",
      "outputs": [
        {
          "internalType": "bytes",
          "name": "",
          "type": "bytes"
        }
      ],
      "stateMutability": "view",
      "type": "function"
    },
    {
      "inputs": [
        {
          "internalType": "address",
          "name": "_patient",
          "type": "address"
        },
        {
          "internalType": "address",
          "name": "_doctor",
          "type": "address"
        }
      ],
      "name": "getDoctorPermission",
      "outputs": [
        {
          "internalType": "bool",
          "name": "",
          "type": "bool"
        }
      ],
      "stateMutability": "view",
      "type": "function"
    },
    {
      "inputs": [
        {
          "internalType": "address",
          "name": "_doctor",
          "type": "address"
        },
        {
          "internalType": "bool",
          "name": "_giveAccess",
          "type": "bool"
        },
        {
          "internalType": "bytes",
          "name": "_fileForDoctor",
          "type": "bytes"
        }
      ],
      "name": "modifyAccess",
      "outputs": [],
      "stateMutability": "nonpayable",
      "type": "function"
    },
    {
      "inputs": [
        {
          "internalType": "bytes",
          "name": "publicKey",
          "type": "bytes"
        },
        {
          "internalType": "enum MedicalRecords.Role",
          "name": "_role",
          "type": "uint8"
        }
      ],
      "name": "modifyUser",
      "outputs": [],
      "stateMutability": "nonpayable",
      "type": "function"
    },
    {
      "inputs": [],
      "name": "patientCount",
      "outputs": [
        {
          "internalType": "uint256",
          "name": "",
          "type": "uint256"
        }
      ],
      "stateMutability": "view",
      "type": "function"
    },
    {
      "inputs": [
        {
          "internalType": "uint256",
          "name": "",
          "type": "uint256"
        }
      ],
      "name": "patientList",
      "outputs": [
        {
          "internalType": "address",
          "name": "",
          "type": "address"
        }
      ],
      "stateMutability": "view",
      "type": "function"
    },
    {
      "inputs": [
        {
          "internalType": "address",
          "name": "",
          "type": "address"
        }
      ],
      "name": "patients",
      "outputs": [
        {
          "internalType": "bool",
          "name": "exists",
          "type": "bool"
        }
      ],
      "stateMutability": "view",
      "type": "function"
    },
    {
      "inputs": [
        {
          "internalType": "address",
          "name": "",
          "type": "address"
        }
      ],
      "name": "publicKeys",
      "outputs": [
        {
          "internalType": "bytes",
          "name": "",
          "type": "bytes"
        }
      ],
      "stateMutability": "view",
      "type": "function"
    },
    {
      "inputs": [
        {
          "internalType": "address",
          "name": "",
          "type": "address"
        }
      ],
      "name": "userRoles",
      "outputs": [
        {
          "internalType": "enum MedicalRecords.Role",
          "name": "",
          "type": "uint8"
        }
      ],
      "stateMutability": "view",
      "type": "function"
    }
  ],
  "bytecode": "0x608060405234801561001057600080fd5b50610be7806100206000396000f3fe608060405234801561001057600080fd5b50600436106100b45760003560e01c806374d5e1001161007157806374d5e1001461017b578063a0303c41146101ab578063a3d6f9a9146101b4578063a5faca9e146101c7578063babb1d4114610207578063f277c1611461021a57600080fd5b80630869cfbc146100b9578063137fca23146100f15780632ad0a7a8146101065780634816061f1461011d57806353a5711b1461013d57806364995d5614610168575b600080fd5b6100dc6100c73660046107f8565b60026020526000908152604090205460ff1681565b60405190151581526020015b60405180910390f35b6101046100ff366004610863565b61022d565b005b61010f60055481565b6040519081526020016100e8565b61013061012b3660046108cb565b610367565b6040516100e891906108fe565b61015061014b36600461094d565b610424565b6040516001600160a01b0390911681526020016100e8565b610104610176366004610966565b61044e565b61019e6101893660046107f8565b60016020526000908152604090205460ff1681565b6040516100e891906109d7565b61010f60075481565b6101306101c23660046107f8565b6106a4565b6100dc6101d53660046108cb565b6001600160a01b0391821660009081526002602090815260408083209390941682526001909201909152205460ff1690565b61015061021536600461094d565b61073e565b6101506102283660046109ff565b61074e565b6001803360009081526001602052604090205460ff166002811115610254576102546109c1565b146102985760405162461bcd60e51b815260206004820152600f60248201526e2737ba1030baba3437b934bd32b21760891b60448201526064015b60405180910390fd5b836102e1573360009081526002602081815260408084206001600160a01b038a168552600181018352818520805460ff19169055909201905281206102dc91610786565b610360565b3360009081526002602081815260408084206001600160a01b038a16855260018082018452828620805460ff1916909117905590920190529020610326838583610aca565b506001600160a01b03851660009081526003602090815260408220805460018101825590835291200180546001600160a01b031916331790555b5050505050565b6001600160a01b03808316600090815260026020818152604080842094861684529390910190522080546060919061039e90610a3f565b80601f01602080910402602001604051908101604052809291908181526020018280546103ca90610a3f565b80156104175780601f106103ec57610100808354040283529160200191610417565b820191906000526020600020905b8154815290600101906020018083116103fa57829003601f168201915b5050505050905092915050565b6004818154811061043457600080fd5b6000918252602090912001546001600160a01b0316905081565b6001816002811115610462576104626109c1565b148061047f5750600281600281111561047d5761047d6109c1565b145b6104bb5760405162461bcd60e51b815260206004820152600d60248201526c24b73b30b634b2103937b6329760991b604482015260640161028f565b3360009081526001602052604081205460ff1660028111156104df576104df6109c1565b146105245760405162461bcd60e51b8152602060048201526015602482015274526f6c652061737369676e656420416c726561647960581b604482015260640161028f565b6002816002811115610538576105386109c1565b14801561055e5750336000908152602081905260409020805461055a90610a3f565b1590505b156105bc576004805460018101825560009182527f8a35acfbc15ff81a39ae7d344fd709f28e8600b4aa8c65c6b64bfe7fe36bd19b0180546001600160a01b0319163317905560058054916105b283610b8a565b9190505550610650565b60018160028111156105d0576105d06109c1565b1480156105f6575033600090815260208190526040902080546105f290610a3f565b1590505b15610650576006805460018101825560009182527ff652222313e28459528d920b65115c16c04f3efc82aaedc97be59f3f377c0d3f0180546001600160a01b03191633179055600780549161064a83610b8a565b91905055505b33600090815260208190526040902061066a838583610aca565b503360009081526001602081905260409091208054839260ff199091169083600281111561069a5761069a6109c1565b0217905550505050565b600060208190529081526040902080546106bd90610a3f565b80601f01602080910402602001604051908101604052809291908181526020018280546106e990610a3f565b80156107365780601f1061070b57610100808354040283529160200191610736565b820191906000526020600020905b81548152906001019060200180831161071957829003601f168201915b505050505081565b6006818154811061043457600080fd5b6003602052816000526040600020818154811061076a57600080fd5b6000918252602090912001546001600160a01b03169150829050565b50805461079290610a3f565b6000825580601f106107a2575050565b601f0160209004906000526020600020908101906107c091906107c3565b50565b5b808211156107d857600081556001016107c4565b5090565b80356001600160a01b03811681146107f357600080fd5b919050565b60006020828403121561080a57600080fd5b610813826107dc565b9392505050565b60008083601f84011261082c57600080fd5b50813567ffffffffffffffff81111561084457600080fd5b60208301915083602082850101111561085c57600080fd5b9250929050565b6000806000806060858703121561087957600080fd5b610882856107dc565b93506020850135801515811461089757600080fd5b9250604085013567ffffffffffffffff8111156108b357600080fd5b6108bf8782880161081a565b95989497509550505050565b600080604083850312156108de57600080fd5b6108e7836107dc565b91506108f5602084016107dc565b90509250929050565b60006020808352835180602085015260005b8181101561092c57858101830151858201604001528201610910565b506000604082860101526040601f19601f8301168501019250505092915050565b60006020828403121561095f57600080fd5b5035919050565b60008060006040848603121561097b57600080fd5b833567ffffffffffffffff81111561099257600080fd5b61099e8682870161081a565b9094509250506020840135600381106109b657600080fd5b809150509250925092565b634e487b7160e01b600052602160045260246000fd5b60208101600383106109f957634e487b7160e01b600052602160045260246000fd5b91905290565b60008060408385031215610a1257600080fd5b610a1b836107dc565b946020939093013593505050565b634e487b7160e01b600052604160045260246000fd5b600181811c90821680610a5357607f821691505b602082108103610a7357634e487b7160e01b600052602260045260246000fd5b50919050565b601f821115610ac5576000816000526020600020601f850160051c81016020861015610aa25750805b601f850160051c820191505b81811015610ac157828155600101610aae565b5050505b505050565b67ffffffffffffffff831115610ae257610ae2610a29565b610af683610af08354610a3f565b83610a79565b6000601f841160018114610b2a5760008515610b125750838201355b600019600387901b1c1916600186901b178355610360565b600083815260209020601f19861690835b82811015610b5b5786850135825560209485019460019092019101610b3b565b5086821015610b785760001960f88860031b161c19848701351681555b505060018560011b0183555050505050565b600060018201610baa57634e487b7160e01b600052601160045260246000fd5b506001019056fea26469706673582212200a7f3d2d82a1aaefcfb88c3114a1ed8066b7d166fda2db500bacfcff0d09c3ad64736f6c63430008180033",
  "linkReferences": {},
  "deployedLinkReferences": {}
}